:020000040800F2
:1000000000280020D1010008210200082102000878
:10001000210200082102000821020008000000005F
:1000200000000000000000000000000021020008A5
:10003000210200080000000021020008210200083F
:100040002102000821020008210200082102000804
:1000500021020008210200082102000821020008F4
:1000600021020008210200082102000821020008E4
:1000700021020008210200082102000821020008D4
:1000800021020008210200082102000821020008C4
:1000900021020008210200082102000821020008B4
:1000A00021020008210200082102000821020008A4
:1000B0002102000821020008210200082102000894
:1000C0002102000821020008210200082102000884
:1000D0002102000821020008210200082102000874
:1000E000210200082102000800000000210200088F
:1000F0002102000821020008210200082102000854
:100100002102000821020008210200082102000843
:100110002102000821020008210200082102000833
:100120002102000821020008210200082102000823
:1001300010B5054C237833B9044B13B10448AFF321
:1001400000800123237010BD00000020000000008B
:100150006C02000808B5034B1BB103490348AFF319
:10016000008008BD00000000040000206C020008B0
:1001700080B483B000AF134B1B68124A43F00403F2
:100180001360114B1B68104A23F4700313600E4B6D
:100190001B680D4A43F40013136000237B600B4B74
:1001A0001B680A4A83F40053136000237B6002E05B
:1001B0007B6801337B607B6842F20F729342F7D910
:1001C000EDE700BF18100240040801400C08014090
:1001D0000D488546AFF300800C480D490D4A0023B9
:1001E00002E0D458C4500433C4188C42F9D30A4AEC
:1001F0000A4C002301E013600432A242FBD300F05A
:1002000011F8FFF7B5FFFEE70028002000000020EE
:10021000000000208C020008000000201C000020CC
:10022000FEE7000070B500260C4D0D4C641BA410B9
:10023000A64209D100F01AF800260A4D0A4C641BA8
:10024000A410A64205D170BD55F8043B984701366D
:10025000EEE755F8043B98470136F2E784020008C0
:10026000840200088402000888020008F8B500BF74
:10027000F8BC08BC9E467047F8B500BFF8BC08BC87
:040280009E467047DF
:040284005501000818
:040288003101000838
:04000005080001D11D
:00000001FF
